:1000000009C1000034C1000032C1000030C100004D
:100010002EC100002CC100002AC1000028C1000030
:1000200026C1000024C1000022C1000020C1000040
:100030001EC100001CC100001AC1000018C1000050
:1000400016C1000014C1000012C1000010C1000060
:100050000EC100000CC100000AC100000C947D1507
:1000600006C100000C944E180C94921900C10000B7
:10007000FEC00000FCC00000FAC00000F8C0000094
:10008000F6C00000F4C00000F2C00000F0C00000A4
:100090000C948E180C94D119EAC00000E8C000003E
:1000A000E6C00000E4C00000E2C00000E0C00000C4
:1000B000DEC00000DCC00000DAC00000D8C00000D4
:1000C000D6C00000D4C00000D2C000000C94CE18EE
:1000D0000C94101ACCC000000C940E190C944F1AFA
:1000E000C6C0000000002100240027002A002D00C7
:1000F0003000330001010000040107010A01000083
:100100002200250028002B002E00310034000201BF
:100110000000050108010B0100002000230026005B
:1001200029002C002F00320000010000030106010D
:10013000090105050505070508080808020202026D
:100140000A0A080804040404010101010101010173
:100150000303030303030303040707070C0C0C0C3E
:100160000C0C0C0C02020202060606060606060627
:100170000B0B0B0B0B0B0B0B0102102020080810B4
:100180002040102040800201020108040201010207
:1001900004081020408080402010080402018004E0
:1001A000020180402010080402010804020101023B
:1001B0000408102040800102040810204080000044
:1001C000090A02080B0C0D070603040100000000D9
:1001D000000000000000000000000000000000001F
:1001E0000000000000000000000011100F000000DF
:1001F00000000000000000000000000000000000FF
:10020000000000006364696E6F70737578585B005E
:100210004E093B1D11241FBECFEFD1E2DEBFCDBF83
:1002200000E00CBF1DE0A0E0B2E0E8E1FDE600E088
:100230000BBF02C007900D92AA3CB107D9F71BBEB5
:1002400010E1AAECBDE001C01D92AF38B107E1F7A3
:1002500012E0C4E1D2E004C02297FE010E942036E1
:10026000C031D107C9F70E94711E0C948A36C8CEDE
:10027000EF92FF920F931F93DF93CF93CDB7DEB72B
:10028000C058D0400FB6F894DEBF0FBECDBF8091EE
:10029000D50D9091D60D0E943E0B7C018091D50D1D
:1002A0009091D60D0E944A0B2DB73EB72850304092
:1002B0000FB6F8943EBF0FBE2DBFEDB7FEB7319617
:1002C0008E010F5F1F4FADB7BEB712961C930E93F2
:1002D000119720E032E033832283F582E48299276C
:1002E00087FD9095978386830E94292E2DB73EB770
:1002F000285F3F4F0FB6F8943EBF0FBE2DBF82E080
:1003000090E1B8010E94C52180E090E0C058DF4F25
:100310000FB6F894DEBF0FBECDBFCF91DF911F9116
:100320000F91FF90EF900895CF93DF93EC0161154B
:10033000710519F420E030E00FC0DB010D900020C2
:10034000E9F71197A61BB70BE881F9810280F381C9
:10035000E02DAD0119959C01C901DF91CF91089560
:100360004F925F926F927F928F929F92AF92BF92C5
:10037000CF92DF92EF92FF920F931F93DF93CF9371
:10038000CDB7DEB7C254D0400FB6F894DEBF0FBE73
:10039000CDBF8091D50D9091D60D0E944A0BC82EED
:1003A000DD24C7FCD0948091D50D9091D60DBE016F
:1003B0006F5F7F4F0E94190B582E492E8091D50DEB
:1003C0009091D60D0E942E0B3C0182E090E16FE0EF
:1003D00072E0AADF82E090E168E172E0A5DF80E0F0
:1003E00090E076010894E108F10873E0A72EB12CA3
:1003F000AC0EBD1E66E2862E62E0962E34C08C01E5
:100400000F5F1F4F8E159F051CF423E232E002C0E0
:1004100025E232E04DB75EB74A5050400FB6F8942F
:100420005EBF0FBE4DBFEDB7FEB73196ADB7BEB7DD
:100430001296BC92AE9211979382828215830483A6
:1004400097838683318720870E94292EEDB7FEB7D8
:100450003A960FB6F894FEBF0FBEEDBF82E090E172
:10046000B50162DFC8018C159D054CF282E090E178
:1004700063E372E059DF82E090E166E372E054DF0B
:10048000852D942D9C01790100E010E053E0C52EEC
:10049000D12CCC0EDD1E44E4A42E42E0B42E37C095
:1004A000D7012D913C910197081719071CF085E29F
:1004B00092E002C083E292E0EDB7FEB73A970FB642
:1004C000F894FEBF0FBEEDBF3196ADB7BEB7129622
:1004D000DC92CE921197B382A28235832483178354
:1004E0000683918780870E94292EEDB7FEB73A9642
:1004F0000FB6F894FEBF0FBEEDBF82E090E1B601EB
:1005000013DF0F5F1F4F42E050E0E40EF51E8981BC
:100510009A810817190724F282E090E163E372E000
:1005200003DF82E090E16EE472E0FEDE80E090E0C6
:1005300073010894E108F10833E0C32ED12CCC0EEE
:10054000DD1E29E5A22E22E0B22E31C08C010F5F04
:100550001F4F8E159F051CF423E232E002C025E2F6
:1005600032E0ADB7BEB71A970FB6F894BEBF0FBE54
:10057000ADBFEDB7FEB731961296DC92CE921197D1
:10058000B382A28215830483978386833187208771
:100590000E94292EEDB7FEB73A960FB6F894FEBF2B
:1005A0000FBEEDBF82E090E1B601BEDEC801861548
:1005B000970564F282E090E163E672E00E94C52153
:1005C00080E090E0CE5BDF4F0FB6F894DEBF0FBE49
:1005D000CDBFCF91DF911F910F91FF90EF90DF90F2
:1005E000CF90BF90AF909F908F907F906F905F90D3
:1005F0004F9008952F923F924F925F926F927F9209
:100600008F929F92AF92BF92CF92DF92EF92FF9222
:100610000F931F93DF93CF93CDB7DEB7C754D0406E
:100620000FB6F894DEBF0FBECDBF5C0125967FAF3D
:100630006EAF2597F42EE52E290100D000D0EDB73E
:10064000FEB731968E010D5F1F4FADB7BEB7129644
:100650001C930E93119787E692E09383828308940C
:10066000A11CB11CB582A4820894A108B1080E9403
:10067000292E4DB75EB74A5F5F4F0FB6F8945EBF45
:100680000FBE4DBF82E090E1B8014EDE2F2D3E2D12
:10069000C9014C01CC24DD24702EC201019728969B
:1006A0009FAF8EAF289725962EAC3FAC2597089428
:1006B0002108310892C02696CFAE26976D2C00D027
:1006C00000D0EDB7FEB73196ADB7BEB711967C92AC
:1006D000119712961C9341E752E053834283D40151
:1006E0008D919C91958384830E94292E4DB75EB78E
:1006F0004A5F5F4F0FB6F8945EBF0FBE4DBF82E0FA
:1007000090E1672D712F10DEEE24FF244EC0E091A2
:10071000D50DF091D60DA081B18118960D90BC91A8
:10072000A02DCF0126966FAD2697762D4E2D9E01DA
:100730002F5F3F4F0A2DFD01199529813A81289697
:100740008EAD9FAD2897E816F9061CF085E292E081
:1007500002C083E292E0ADB7BEB718970FB6F89427
:10076000BEBF0FBEADBFEDB7FEB7319611967C92FE
:10077000119712961C9348E752E0538342833583C6
:100780002483978386830E94292E8DB79EB708966F
:100790000FB6F8949EBF0FBE8DBF82E090E1672D2B
:1007A000712FC2DD0894E11CF11CE414F5040CF473
:1007B000AECF82E090E16DE772E0B6DDC214D30403
:1007C0002CF482E090E163E272E0AEDD0894C11C9B
:1007D000D11CA2E0B0E08A0E9B1E25964EAD5FAD07
:1007E0002597C416D5060CF466CF82E090E16FE73A
:1007F00072E00E94CF20C95BDF4F0FB6F894DEBFD6
:100800000FBECDBFCF91DF911F910F91FF90EF9061
:10081000DF90CF90BF90AF909F908F907F906F9020
:100820005F904F903F902F900895AF92BF92CF92DC
:10083000DF92EF92FF920F931F93DF93CF93CDB789
:10084000DEB762970FB6F894DEBF0FBECDBF8091C2
:10085000D50D9091D60DBE016F5F7F4FEAD66C012A
:100860008091D50D9091D60DF9D67C0182E090E172
:1008700061E872E059DD8091D50D9091D60DFAD6E0
:100880008130910559F0029709F03BC000E010E07B
:10089000E3E0AE2EB12CAC0EBD1E28C069817A817A
:1008A00080E090E0A6019701A5DE2BC069817A81E6
:1008B000C801A60197019EDE8091D50D9091D60DBD
:1008C000E9D6992787FD90950197081719071CF01D
:1008D00065E272E002C063E272E0C5010E94402D51
:1008E00082E090E1B50120DD0F5F1F4F8091D50DB3
:1008F0009091D60DCFD6992787FD909508171907A7
:10090000ACF282E090E16FE772E00E94C52180E0E6
:1009100090E062960FB6F894DEBF0FBECDBFCF91C8
:10092000DF911F910F91FF90EF90DF90CF90BF90DC
:10093000AF9008958F929F92AF92BF92CF92DF9225
:10094000EF92FF920F931F93DF93CF93CDB7DEB754
:100950002A970FB6F894DEBF0FBECDBF2DB73EB7B6
:10096000205130400FB6F8943EBF0FBE2DBFEDB7FB
:10097000FEB731961FE5A12E13E0B12EADB7BEB77D
:100980001296BC92AE92119783E892E09383828391
:100990006E010894C11CD11CD582C482B2E0EB2E3A
:1009A000F12CEC0EFD1EF782E682A3E08A2E912C3C
:1009B0008C0E9D1E91868086CE0105969387828738
:1009C000CE010796958784878E01075F1F4F178793
:1009D00006870E944C2E2DB73EB7205F3F4F0FB6C3
:1009E000F8943EBF0FBE2DBF0697B9F4A091D50D68
:1009F000B091D60DED91FC9111976D817E8120E033
:100A000089859A85892B09F021E00480F581E02D04
:100A1000CD014F810B8119957DC08DB79EB70C9785
:100A20000FB6F8949EBF0FBE8DBFEDB7FEB73196DF
:100A3000ADB7BEB71296BC92AE92119784E992E020
:100A400093838283D582C482F782E68291868086F0
:100A5000138702870E944C2E2DB73EB7245F3F4F6D
:100A60000FB6F8943EBF0FBE2DBF0497A1F4A0911E
:100A7000D50DB091D60DED91FC91119760E089856F
:100A80009A85892B09F061E04B815C810680F781B2
:100A9000E02DCD013EC08DB79EB70A970FB6F894F2
:100AA0009EBF0FBE8DBFEDB7FEB73196ADB7BEB7D7
:100AB0001296BC92AE92119780EA92E09383828361
:100AC000D582C482F782E682118700870E944C2E6D
:100AD0002DB73EB7265F3F4F0FB6F8943EBF0FBE0F
:100AE0002DBF039719F021E030E015C0A091D50D7E
:100AF000B091D60DED91FC91119760E089859A85B2
:100B0000892B09F061E00680F781E02DCD014FEFE0
:100B10005FEF19959C01C9012A960FB6F894DEBFC4
:100B20000FBECDBFCF91DF911F910F91FF90EF903E
:100B3000DF90CF90BF90AF909F908F900895AF922D
:100B4000BF92CF92DF92EF92FF920F931F93DF93AA
:100B5000CF93CDB7DEB72C970FB6F894DEBF0FBE9C
:100B6000CDBF2DB73EB72E5030400FB6F8943EBFE4
:100B70000FBE2DBFEDB7FEB731968FE5A82E83E0EF
:100B8000B82EADB7BEB71296BC92AE92119789EA55
:100B900092E0938382836E010894C11CD11CD5829C
:100BA000C48202E0E02EF12CEC0EFD1EF782E682FC
:100BB0008E010D5F1F4F11870087CE010596938729
:100BC0008287CE010796958784870E944C2E2DB789
:100BD0003EB7225F3F4F0FB6F8943EBF0FBE2DBF0A
:100BE000059701F5A091D50DB091D60DED91FC9131
:100BF00011976D817E810084F185E02DCD014F81BB
:100C00009E01275F3F4F0B8119958C01009709F0DA
:100C100054C069857A8582E090E14AE050E00E9404
:100C2000B2204BC08DB79EB70A970FB6F8949EBFFF
:100C30000FBE8DBFEDB7FEB73196ADB7BEB71296FA
:100C4000BC92AE92119787EB92E093838283D58218
:100C5000C482F782E682118700870E944C2E2DB74E
:100C60003EB7265F3F4F0FB6F8943EBF0FBE2DBF75
:100C7000039709F58091D50D9091D60DBE01655F62
:100C80007F4FD7D47C018091D50D9091D60DE6D4BD
:100C90008C0182E090E161E872E046DB6B857C8547
:100CA0008B819C81A7019801A5DC82E090E16FE730
:100CB00072E00E94C52100E010E0C8012C960FB63A
:100CC000F894DEBF0FBECDBFCF91DF911F910F9182
:100CD000FF90EF90DF90CF90BF90AF900895EFE539
:100CE000F3E001900020E9F73197EF55F340329798
:100CF000E0F0809160038436A1F085361CF48336E1
:100D0000A1F411C0873621F0833779F413DE07C0D0
:100D1000809161038A3211F488DD01C010DF9C01EB
:100D200006C01EDBFCCFA4DAFACF21E030E0C90117
:100D30000895CF93DF93EC016115710519F420E05C
:100D400030E00FC0DB010D900020E9F71197A61BE2
:100D5000B70BE881F9810280F381E02DAD0119958F
:100D60009C01C901DF91CF910895AF92BF92CF92BC
:100D7000DF92EF92FF920F931F93DF93CF93CDB744
:100D8000DEB7CD54D0400FB6F894DEBF0FBECDBF56
:100D90000FE513E0F80101900020E9F73197E01B1F
:100DA000F10B329708F452C280916003843609F443
:100DB0002FC1853624F4833609F048C2C4C1873672
:100DC00009F4BFC0833709F041C22DB73EB72A509E
:100DD00030400FB6F8943EBF0FBE2DBFEDB7FEB743
:100DE0003196ADB7BEB712961C930E93119780EC57
:100DF00092E09383828385E0E82EF12CEC0EFD1EB9
:100E0000F582E482B9E0CB2ED12CCC0EDD1ED78248
:100E1000C682CE010796918780870E944C2E2DB7FF
:100E20003EB7265F3F4F0FB6F8943EBF0FBE2DBFB3
:100E3000039759F420E08F819885892B09F021E0F0
:100E400083ED9DE06D81498568C08DB79EB7089799
:100E50000FB6F8949EBF0FBE8DBFEDB7FEB73196AB
:100E6000ADB7BEB712961C930E9311978CEC92E01F
:100E700093838283F582E482D782C6820E944C2EBD
:100E80002DB73EB7285F3F4F0FB6F8943EBF0FBE59
:100E90002DBF029771F483ED9DE06D81AE014E5F31
:100EA0005F4F0E94BB1383ED9DE06D8149852A81D0
:100EB00034C000D000D0EDB7FEB73196ADB7BEB7A5
:100EC00012961C930E93119785ED92E09383828383
:100ED000F582E4820E944C2E2DB73EB72A5F3F4F29
:100EE0000FB6F8943EBF0FBE2DBF019709F0AEC1FB
:100EF000F80101900020E9F73397E081E53681F4AD
:100F000083ED9DE06D81AE014E5F5F4F0E94BB138C
:100F1000482F83ED9DE06D8121E00E94841375C010
:100F2000E43609F093C183ED9DE06D81AE014E5F23
:100F30005F4F0E94BB13482F83ED9DE06D8120E041
:100F4000ECCF8DB79EB70A970FB6F8949EBF0FBE31
:100F50008DBFEDB7FEB73196ADB7BEB712961C93F5
:100F60000E9311978CED92E093838283CE010396CA
:100F700095838483CE01049697838683CE0105965C
:100F8000918780870E944C2E2DB73EB7265F3F4F3A
:100F90000FB6F8943EBF0FBE2DBF039709F056C1A0
:100FA00083ED9DE06D81AE014F5F5F4F0E94BB13EB
:100FB00089871A86ADB7BEB718970FB6F894BEBF2B
:100FC0000FBEADBFEDB7FEB731968E01055F1F4F67
:100FD00012961C930E93119725EE32E033832283F1
:100FE000848315828981868317820E94292E2DB7DA
:100FF0003EB7285F3F4F0FB6F8943EBF0FBE2DBFE0
:1010000082E090E1B8010E94C52120E030E020C1DB
:1010100082E090E16BEE72E087D983ED9DE00E9463
:1010200026138C01EE24FF24AEE0CA2ED12CCC0E68
:10103000DD1EF3E0AF2EF3E0BF2E37C000FF30C05F
:10104000C80196958795892B19F480E093E002C03A
:1010500081E093E0ADB7BEB71A970FB6F894BEBF64
:101060000FBEADBFEDB7FEB731961296DC92CE92B1
:101070001197B382A282F582E482F782E682918799
:1010800080870E94292E2DB73EB7265F3F4F0FB6AF
:10109000F8943EBF0FBE2DBF82E090E1B60144D967
:1010A0000894E11CF11C169507950115110531F600
:1010B00082E090E162E173E037D9EF2809F43EC0A5
:1010C00000E010E06EE0E62EF12CEC0EFD1E5DE17E
:1010D000C52E53E0D52E0730110519F480E093E0BA
:1010E00002C081E093E0ADB7BEB71A970FB6F8948F
:1010F000BEBF0FBEADBFEDB7FEB731961296FC92E4
:10110000EE921197D382C2821583048317830683DC
:10111000918780870E94292E2DB73EB7265F3F4FCB
:101120000FB6F8943EBF0FBE2DBF82E090E1B7012D
:10113000FBD80F5F1F4F0830110569F682E090E180
:101140006AE273E060CF8DB79EB70A970FB6F89446
:101150009EBF0FBE8DBFEDB7FEB73196ADB7BEB720
:1011600012961C930E9311978CED92E093838283D9
:10117000CE01039695838483CE010496978386835C
:10118000CE010596918780870E944C2E2DB73EB7E1
:10119000265F3F4F0FB6F8943EBF0FBE2DBF03979B
:1011A00009F054C082E090E16EE273E00E94CF202B
:1011B00083ED9DE06D810E94B813FF244EE0C42EA4
:1011C000D12CCC0EDD1E30E3A32E33E0B32E37C07E
:1011D000082F10E080FF2FC0C80195958795892BB7
:1011E00019F480E093E002C081E093E0ADB7BEB7B0
:1011F00018970FB6F894BEBF0FBEADBFEDB7FEB7E0
:1012000031961296DC92CE921197B382A282F4822A
:101210001582978386830E94292E2DB73EB7285FBB
:101220003F4F0FB6F8943EBF0FBE2DBF82E090E156
:10123000B6010E94CF2015950795802FF39488233F
:1012400039F682E090E165E373E0DDCE21E030E045
:10125000C901C35BDF4F0FB6F894DEBF0FBECDBF31
:10126000CF91DF911F910F91FF90EF90DF90CF9082
:10127000BF90AF90089588E10FB6F8948093600016
:10128000109260000FBE109251031092CA0D80E0C0
:1012900090E00895A89580E090E008950F931F9343
:1012A0000BEC1DE0C80169E147E12BE10E948D14C0
:1012B0001093D40D0093D30D1F910F910895EF92C9
:1012C000FF920F931F938FE5E82E83E0F82EF7012E
:1012D00001900020E9F7EE19FF0901E513E03297CC
:1012E00097012F5F3F4FC801B901AF010E940B2D3D
:1012F000F70101900020E9F73197EE19FF090E0F71
:101300001F1F02501040F801108281E08093CA0D27
:1013100029E288E190E00FB6F894A89580936000E8
:101320000FBE2093600080E090E01F910F91FF902E
:10133000EF9008950F931F93DF93CF93CDB7DEB750
:10134000A8970FB6F894DEBF0FBECDBF00D000D077
:10135000EDB7FEB731968E010F5F1F4FADB7BEB729
:1013600012961C930E9311978FEA93E093838283D6
:101370008EEB93E0958384830E94292E8DB79EB7D0
:1013800006960FB6F8949EBF0FBE8DBF82E090E127
:10139000B8010E94C52180E090E0A8960FB6F894AD
:1013A000DEBF0FBECDBFCF91DF911F910F9108958A
:1013B00082E090E164EC73E00E94C52180E090E05F
:1013C000089582E090E16EEB73E00E94C52180E019
:1013D00090E00895CF93DF938FE593E067E373E0A8
:1013E0000E94372D009719F4C0E0D0E058C08091DA
:1013F0005F038B3679F18C3684F4883409F440C06D
:1014000089342CF48332C9F0843291F414C08335CA
:1014100009F438C0883661F42FC08237F9F0833779
:101420001CF4803729F41FC0863721F1873731F14A
:10143000C1E0D0E029C043DF26C088E10FB6F894B0
:1014400080936000109260000FBE109251031092C2
:10145000CA0D01C0A895C0E0D0E016C082E090E1BE
:1014600061E573E004C082E090E169E373E00E940B
:10147000C521F1CFA6DF07C09BDF05C05BDF03C03E
:101480002EDC01C072DCEC01FE01EE0FFF1FE954FF
:10149000F34F6081718182E090E10E94C521CE010D
:1014A000DF91CF9108951F932AC082E090E10E94BE
:1014B000C01C182F8091D70D9091D80DFC01E15AD6
:1014C000FC4F108301969093D80D8093D70D82E046
:1014D00090E1612F0E94F91C1D3089F4E091D70D35
:1014E000F091D80DE15AFC4F10821092D80D109255
:1014F000D70D82E090E16AE00E94F91C6BDF82E088
:1015000090E10E948F1C892B81F61F910895CBCF0B
:1015100082E090E140E855E260E070E00E94161B36
:1015200083ED9DE065E20E94681483ED9DE00E94DA
:101530002613892B11F480E005C083ED9DE00E9405
:10154000541381E0B4D0FC019093D60D8093D50D57
:10155000A081B1812D913C91F9011995EBDE82E0DA
:1015600090E16EE373E00C94C52181E090E0089572
:1015700081E090E0089581E090E0089581E090E0BE
:1015800008950895FC018EEF9CE09183808314827E
:10159000138212820895FC018EEF9CE09183808378
:1015A0001482138212820895FC018EEF9CE09183D5
:1015B00080835383428364830895FC018EEF9CE013
:1015C000918380835383428364830895FC018EEF6B
:1015D0009CE0918380837383628314820895FC016D
:1015E0008EEF9CE0918380837383628314820895DD
:1015F000FC018EEF9CE0918380830895FC018EEFC7
:101600009CE09183808308950F931F938C01DC01EC
:10161000ED91FC910284F385E02D1995D801ED91AF
:10162000FC910280F381E02DC80119951F910F9163
:101630000895FB01DC0112968D919C911397892BE3
:1016400039F084E090E09183808327ED3CE004C092
:101650001182108220E030E0C9010895FC018281EE
:101660009381892B19F420E030E002C023E030E0C0
:10167000C9010895FC01828193810895DC011296CD
:10168000ED91FC911397EE0FFF1FEC50F34F80810B
:1016900091810895FC0184810895C4D5882319F4AB
:1016A00021E030E002C022E030E0C90108950F934C
:1016B0001F93182FF2DF8130910529F00297D1F0A6
:1016C000E0E0F0E022C0112341F485E090E00E94C8
:1016D000951E182F092FD0D114C085E090E00E94EC
:1016E000951EFC018EEF9CE091838083148213820F
:1016F00012820BC085E090E00E94951E182F092FE2
:101700005AD7212F302FC901FC01CF011F910F9112
:101710000895DF92EF92FF920F931F93CF93DF9381
:101720007C01D62EC0E0D0E013C0D701ED91FC9132
:101730000480F581E02DC701BE01412F2D2D0FEF53
:1017400019951F5F133089F72196C330D10511F029
:1017500010E0EBCF80E090E0DF91CF911F910F91EF
:10176000FF90EF90DF900895EF92FF920F931F93F9
:10177000CF93DF937C01C0E0D0E013C0D701ED919F
:10178000FC910480F581E02DC701BE01412F20E0CE
:101790000FEF19951F5F133089F72196C430D105DB
:1017A00011F010E0EBCF80E090E0DF91CF911F913E
:1017B0000F91FF90EF900895EF92FF920F931F9378
:1017C000CF93DF930BE11DE081E2E82E8DE0F82E50
:1017D000C7E2DDE0F801808161E00E94BE16F701FA
:1017E000808161E00E94BE16888161E00E94BE1681
:1017F0008A8161E00E94BE168C8161E00E94BE1663
:101800008E8161E00E94BE160E5F1F4F82E090E065
:10181000E80EF91E28969DE001321907D9F6DF91EE
:10182000CF911F910F91FF90EF9008958F929F920B
:10183000AF92BF92CF92DF92EF92FF920F931F93DE
:10184000CF93DF937901643071050CF086C043308B
:1018500008F083C088248A94982CF90191828082B0
:101860006130710509F465C06230710524F46115B9
:10187000710551F075C06230710509F461C06330C3
:10188000710509F06DC01FC0042F10E043E0000F88
:10189000111F4A95E1F70A5D124FF80181810E94FC
:1018A000A3175C01F80183810E94A317EC01F801E2
:1018B00085810E94A3176C01F80187810E94A317FC
:1018C000892B19F51EC0042F10E033E0000F111F03
:1018D0003A95E1F70A5D124FF80181810E94A31742
:1018E0005C01F80183810E94A317EC01F801858156
:1018F0000E94A3176C01F80187810E94A317892B0E
:1019000021F0F701118210822BC0CE018A219B2188
:101910008C219D21F70191838083CA29DB29CC2961
:10192000DD298C179D07E1F09182808223E030E071
:1019300019C0E42FF0E0EE0FFF1FE05EF24F06C08B
:10194000E42FF0E0EE0FFF1FE65EF24F81810E9470
:10195000A317F7019183808303C021E030E002C028
:1019600020E030E0C901DF91CF911F910F91FF90EE
:10197000EF90DF90CF90BF90AF909F908F900895A1
:10198000FF920F931F93F22E643071050CF06DC01F
:10199000433008F06AC06130710509F457C0623005
:1019A000710524F46115710549F02BC06230710591
:1019B00009F453C06330710521F526C0042F10E0EF
:1019C000E3E0000F111FEA95E1F70A5D124FF801FD
:1019D0008181622F0E9471176AE070E080E090E0E0
:1019E0000E94F915F80183816F2D0E947117F8018B
:1019F00085816F2D0E947117F80187816F2D0E94DC
:101A0000711720E030E033C0042F10E073E0000FC6
:101A1000111F7A95E1F70A5D124FF8018181622F5B
:101A20000E9471176AE070E080E090E00E94F91572
:101A3000F80183816F2D0E947117F80185816F2D48
:101A40000E947117F801878160E0D9CFE42FF0E0A0
:101A5000EE0FFF1FE05EF24F06C0E42FF0E0EE0F46
:101A6000FF1FE65EF24F8181C9CF21E030E0C9015E
:101A70001F910F91FF9008950F931F938C0161E0C8
:101A800041E050E091DD8EE09DE0F801918380839C
:101A90001F910F9108950F931F938C0161E041E016
:101AA00050E082DD8EE09DE0F801918380831F91FC
:101AB0000F9108956130710509F454C062307105C9
:101AC0001CF4672B59F007C06230710509F455C04A
:101AD0006330710531F140E050E05FC0842F90E049
:101AE000FC01EE0FFF1FE80FF91FEE0FFF1FE25B77
:101AF000F24F838190E0019721E030E0A90102C01C
:101B0000440F551F8A95E2F7818190E00197B90152
:101B100002C0660F771F8A95E2F7462B572B858107
:101B200017C0842F90E0FC01EE0FFF1FE80FF91F94
:101B3000EE0FFF1FE25BF24F838190E0019721E0FF
:101B400030E0A90102C0440F551F8A95E2F7818158
:101B500090E0019702C0220F331F8A95E2F7422BD3
:101B6000532B1BC0E42FF0E0EE0FFF1FE05AF24FA3
:101B7000818190E00197AB010BC0E42FF0E0EE0F04
:101B8000FF1FEA59F24F818190E0019741E050E058
:101B900002C0440F551F8A95E2F7CA010895EF92DB
:101BA000FF920F931F93CF93DF93E70161157105A8
:101BB00029F06330710509F089C03EC0213031053C
:101BC00031F4B801A0E0B0E001E010E00CC02F5FFC
:101BD0003F4F09F082C061E070E0601B710BA1E033
:101BE000B0E000E010E06115710509F441C061301A
:101BF000710509F072C0842F90E0FC01EE0FFF1F09
:101C0000E80FF91FEE0FFF1FE25BF24F858190E0B6
:101C100001979B0102C0220F331F8A95E2F783814F
:101C200090E0019702C0660F771F8A95E2F7262B96
:101C3000372B1983088353C02130310531F49801C3
:101C4000A0E0B0E061E070E00CC02F5F3F4F09F012
:101C500044C021E030E0201B310BA1E0B0E060E0A7
:101C600070E02115310521F021303105B1F518C0A2
:101C7000842F90E0FC01EE0FFF1FE80FF91FEE0F1D
:101C8000FF1FE25BF24F818190E0019721E030E09D
:101C900002C0220F331F8A95E2F7B983A8831FC0C1
:101CA000842F90E0FC01EE0FFF1FE80FF91FEE0FED
:101CB000FF1FE25BF24F838190E0019702C0220F89
:101CC000331F8A95E2F77983688309C0F3DE9C01AC
:101CD00081E090E09983888302C020E030E0C90170
:101CE000DF91CF911F910F91FF90EF9008951F9377
:101CF000CF93DF938FE260E00E9471178FE261E083
:101D00000E94711780E361E00E94711711E018C012
:101D100081E360E00E94711781E361E00E94711726
:101D200080E360E00E9471172196C031D10581F7F0
:101D30008EE20E94A317019731F01F5F153019F052
:101D4000C0E0D0E0E5CF8FE260E00E9471178FE243
:101D500061E00E947117812FDF91CF911F9108954B
:101D6000EF92FF920F931F93CF93DF938C01EB01C0
:101D70008FE260E00E9471178FE261E00E947117AC
:101D8000F8012481332727FD3095C9010197880F79
:101D9000991FC80FD91F00E010E079010DC02981FB
:101DA00080E361E341E00E94D21780E361E341E018
:101DB00028810E94D21722970F5F1F4FC701801BF7
:101DC000910B97FFECCF83E360E00E94711783E3F0
:101DD00061E00E94711780E090E0DF91CF911F9148
:101DE0000F91FF90EF900895AF92BF92CF92DF9244
:101DF000EF92FF920F931F93CF93DF937C018B01A0
:101E0000FC012481332727FD3095220F331FC801A1
:101E100060E070E0A9010E94252D8EE20E94A317C8
:101E2000682F80E30E947117F7018481992787FD4D
:101E3000909501977C01EE0CFF1CE00EF11ECC2466
:101E4000DD245C0130C0CEE0D0E081E360E00E94A0
:101E5000711781E361E00E9471178EE20E94A3175F
:101E600000E0892B09F001E080E3602F0E947117E8
:101E7000202F30E00C2E02C0220F331F0A94E2F70D
:101E8000F70180819181822B932B9183808321970D
:101E9000FFEFCE3FDF07C9F60894C11CD11C8EEFBF
:101EA0009FEFE80EF91EC5018C199D0997FFCBCF56
:101EB00080E090E0DF91CF911F910F91FF90EF9024
:101EC000DF90CF90BF90AF9008952F923F924F92A6
:101ED0005F926F927F928F929F92AF92BF92CF92BA
:101EE000DF92EF92FF920F931F93DF93CF9300D077
:101EF0000F92CDB7DEB75C0169831A012DB73EB7EB
:101F00003B832A83FC018481992787FD909548179C
:101F100059071CF021E030E07EC0880F991F2DB7D3
:101F20003EB7281B390B0FB6F8943EBF0FBE2DBF2E
:101F30000DB71EB70F5F1F4F402E1C83C501B801A0
:101F400053DFCC24DD243101660C771C600E711E3A
:101F50005AC03FEF23163FEF330639F4842D9C819E
:101F60009C017901882499243AC08981882351F001
:101F7000C501B601452D9EDDF30120813181282B5D
:101F8000392B0BC0C501B601452D94DD8095909588
:101F9000F30120813181282339233183208327C015
:101FA000F70100811181F981FF2339F0C501B601E4
:101FB000452D80DD082B192B08C0C501B601452D24
:101FC00079DD8095909508231923F701118300830B
:101FD0000894811C911C22E030E0E20EF31EF50112
:101FE0008481992787FD909588169906CCF25394A1
:101FF000F3E05F1609F0ADCF0894C11CD11C23E0BB
:10200000C216D10411F05524A4CFC501642D7C81E2
:10201000A7DE20E030E0C901EA81FB810FB6F89429
:10202000FEBF0FBEEDBF0F900F900F900F90CF919E
:10203000DF911F910F91FF90EF90DF90CF90BF90B5
:10204000AF909F908F907F906F905F904F903F9058
:102050002F9008952F923F925F926F927F928F926E
:102060009F92AF92BF92CF92DF92EF92FF920F9327
:102070001F93DF93CF93CDB7DEB75C014B01542E96
:1020800039012DB63EB6FC01848108170CF063C0FF
:10209000643071050CF05FC022E0241708F45BC0C7
:1020A000992787FD9095880F991FEDB7FEB7E81B1C
:1020B000F90B0FB6F894FEBF0FBEEDBFEDB6FEB63E
:1020C0000894E11CF11CC501B7018EDEC501B40105
:1020D000452DF0DC6C01112707FD1095F3E08F16FC
:1020E0009104A1F020E030E0000F111FE00EF11E7E
:1020F000F701808191818C219D218C159D0511F422
:1021000021E030E0F3013183208315C0C50160E098
:1021100070E0452DCFDC000F111FE00EF11EF7011E
:10212000608171819B01282339232817390731F4F5
:10213000F3011182108220E030E00FC0F301118220
:1021400010826C217D216C157D05A9F781E090E05E
:1021500091838083F0CF21E030E0C9010FB6F8947D
:102160003EBE0FBE2DBECF91DF911F910F91FF900C
:10217000EF90DF90CF90BF90AF909F908F907F9027
:102180006F905F903F902F900895CF92DF92EF92E3
:10219000FF920F931F93DF93CF93CDB7DEB77C01F0
:1021A000CDB6DEB6FC012481332727FD3095220F02
:1021B000331F8DB79EB7821B930B0FB6F8949EBF4B
:1021C0000FBE8DBF0DB71EB70F5F1F4FC80160E078
:1021D00070E0A9010E94252DC701B801C1DD80E092
:1021E00090E00FB6F894DEBE0FBECDBECF91DF916A
:1021F0001F910F91FF90EF90DF90CF9008958EE2A6
:1022000060E0BCD58FE261E0B9D580E361E0B6D58E
:1022100081E361E0B3D583E361E0B0D585E361E0BC
:10222000ADC5EDCF2F923F924F925F926F927F920A
:102230008F929F92AF92BF92CF92DF92EF92FF92D6
:102240000F931F93DF93CF93CDB7DEB762970FB68F
:10225000F894DEBF0FBECDBFDE011196ECE6FDE0C7
:1022600089E001900D928150E1F78E01065F1F4FCA
:1022700089E0F80111928A95E9F7C1DF85E361E011
:1022800030D68FE260E02DD68FE261E02AD6F98069
:1022900080E36F2D26D6662463947724CC24DD2436
:1022A000AA24BB2482E0282E312C2C0E3D1E2801AE
:1022B0008F2C992487FC909445C081E360E011D66F
:1022C00081E361E00ED6A114B10431F407301105A9
:1022D0001CF4F701608101C060E080E302D68EE269
:1022E00032D6662071F08815990559F4F201EC0D8B
:1022F000FD1D80820894C11CD11C66247724739430
:102300000FC0772069F0F201EC0DFD1D8083089469
:10231000C11CD11CF8E0CF16D10411F411E009C0A2
:102320000F5F1F4F0894E11CF11C0031110529F6C5
:1023300010E00894A11CB11C85E0A816B10431F08E
:10234000112321F4710100E010E0B7CF8FE260E0CB
:10235000C8D58FE261E0C5D5112311F480E010C02B
:10236000BE01665F7F4FC60ED71EF6011082CE01FA
:1023700001960E94372D9C0180E0232B09F481E017
:1023800062960FB6F894DEBF0FBECDBFCF91DF913E
:102390001F910F91FF90EF90DF90CF90BF90AF9083
:1023A0009F908F907F906F905F904F903F902F9075
:1023B00008952F923F924F925F926F927F928F92E9
:1023C0009F92AF92BF92CF92DF92EF92FF920F93C4
:1023D0001F93DF93CF93CDB7DEB72C970FB6F8944A
:1023E000DEBF0FBECDBF2C017C836B834D832E835C
:1023F0002DB73EB738872F83FC01848108170CF076
:102400009DC0643071050CF099C0433008F096C04F
:102410001A82198222243324602E772467FC709458
:10242000660C771C83C0FDB7F9872EB72A873E81DB
:10243000332319F42FEF3FEF02C021E030E0C20157
:102440006B817C814D8181017E010894E11CF11C2E
:10245000A6DB4C01F2018481992787FD9095880FB6
:10246000991F2DB73EB7281B390B0FB6F8943EBF06
:102470000FBE2DBFCDB6DEB60894C11CD11CCB86D5
:10248000DC86C201B601B0DC8B819C81039701F52B
:10249000F601E60DF71DA080B1809E81992319F405
:1024A0002FEF3FEF02C021E030E0C20160E070E0BA
:1024B0004D8181017E010894E11CF11C70DBF60165
:1024C000E60DF71D80959095A822B922B182A082D1
:1024D000EE81EE2341F0F601E60DF71D808191813A
:1024E0008829992909C0F601E60DF71D809490947A
:1024F000808191818821992191838083C2016B859C
:102500007C852EDC89819A81892B29F46AE070E030
:1025100080E090E06ED389859A859C010FB6F8948F
:102520003EBF0FBE2DBF0894211C311C89819A81AA
:10253000892B09F478CF20E030E002C021E030E0C0
:10254000C9012F8138850FB6F8943EBF0FBE2DBF4D
:102550002C960FB6F894DEBF0FBECDBFCF91DF91A2
:102560001F910F91FF90EF90DF90CF90BF90AF90B1
:102570009F908F907F906F905F904F903F902F90A3
:1025800008950F931F938C013FD8C801B0DBD80189
:1025900014968C9385E360E0A4D48FE261E0A1D42B
:1025A000D801ED91FC910280F381E02DC8011995CD
:1025B0001F910F9108950F931F938C0162E070E0BB
:1025C00005D882E49DE0F801918380831F910F91EB
:1025D00008950F931F938C0162E070E00E94E60A59
:1025E00082E49DE0F801918380831F910F9108950B
:1025F0000F931F93CF93DF93EC01062F1EC0102F74
:102600001F7388819981612F40E050E0ADD18881AE
:10261000998162E040E050E0A7D1106488819981FF
:10262000612F40E050E0A0D1888199816FE741E0BF
:1026300050E09AD1813021F00F5F003100F300E1CA
:10264000802FDF91CF911F910F910895EF92FF920C
:102650000F931F93CF93DF938C0160E0C9DF682F46
:10266000C0E0D0E081E0E82EF12C0DC0C701062EBD
:1026700002C0880F991F0A94E2F7C82BD92B6F5F0D
:10268000C801B6DF682F603189F7CE01DF91CF91A5
:102690001F910F91FF90EF900895FC01606C808175
:1026A000918141E050E060C16FE3F7CFEF92FF927C
:1026B0000F931F93CF93DF93EC01162F7A01022F14
:1026C0004115510561F06F738881998140E050E0B8
:1026D0004BD1888199816E2D40E050E045D11F7328
:1026E000106888819981612F40E050E03DD1888158
:1026F0009981602F41E050E037D1DF91CF911F9158
:102700000F91FF90EF900895342F377021113068AA
:1027100040E050E0232FCACFCF92DF92EF92FF929A
:102720001F93CF93DF937C016A016F736064FC0198
:102730008081918140E050E017D110E0C0E0D0E00E
:10274000812F90E08C159D0511F4C1E0D0E0F701D8
:10275000808191816FE7AE0107D11F5FCD2B71F3AF
:10276000DF91CF911F91FF90EF90DF90CF90089570
:1027700041E050E0D1CFCF93DF93EA0140E050E059
:10278000CBDF982F209729F0188287FF02C081E0C5
:102790008883892F8770DF91CF91089542E050E0C0
:1027A000BBCFFF920F931F93CF93DF93EC0160E0B9
:1027B00079C0FF24CE01602F4F2D21E0A5DF6AE014
:1027C00070E080E090E015D282E090E165E77DE086
:1027D0000E94CF2082E090E1602F4AE050E00E940A
:1027E000232082E090E16F2D4AE050E00E942320F8
:1027F00082E090E16AE77DE00E94CF2010E0CE0108
:10280000602F412F50E088DF682F82E090E140E1A7
:1028100050E00E94232082E090E16DE77DE00E947D
:10282000CF201F5F133059F782E090E16FE77DE022
:102830000E94C52168EE73E080E090E0DAD1F39465
:1028400088E0F81609F0B6CFCE01602FA7DF182F69
:1028500082E090E165E77DE00E94CF2082E090E198
:10286000602F4AE050E00E94232082E090E168E07F
:102870004AE050E00E94232082E090E161E87DE0A0
:102880000E94CF2082E090E1612F40E150E00E9461
:10289000232082E090E16FE77DE00E94C5210F5F79
:1028A000CE01602FA5DE082F803109F082CF68EEBF
:1028B00073E080E090E09DD1CE01F6DEDF91CF9114
:1028C0001F910F91FF900895FC018081918140C07C
:1028D000FF920F931F938C01F62EFC018081918152
:1028E00063E070E025D0F8018081918160E070E0C4
:1028F0002BD0F801808191816F2DDCD01F910F9139
:10290000FF900895FC01608341832283138281E05C
:1029100084831582178216820895FC0160834183A7
:102920002283138281E084831582178216820895A0
:10293000FC0114826230710514F081E08483862FDB
:102940008095817085830895FC017783668308955F
:102950000F931F938C01FC01838161E0C2D2F801C7
:1029600013821F910F9108956F927F928F929F9281
:10297000AF92BF92CF92DF92EF92FF920F931F938D
:10298000CF93DF93EC01162F3A018B8160E0A9D23F
:1029900000E027E0B22E97E0A92E812E992481E055
:1029A000C82ED12CE12CF12C8E819F81892B11F422
:1029B0001B2D02C01A2D1B19B401012E02C07595E2
:1029C00067950A94E2F761708A818BD28D818823A2
:1029D00059F185E090E066D160E08C81882309F4AC
:1029E00061E088817ED28981AED2892B59F0D701EE
:1029F000C60104C0880F991FAA1FBB1F1A95D2F7E2
:102A0000082B0BC0D701C60104C0880F991FAA1F4D
:102A1000BB1F1A95D2F78095082385E090E042D13C
:102A200088816C815ED22AC060E08C81882309F4A1
:102A300061E0888156D285E090E034D1898183D2EB
:102A4000892B59F0D701C60104C0880F991FAA1F0E
:102A5000BB1F1A95D2F7082B0BC0D701C60104C0C3
:102A6000880F991FAA1FBB1F1A95D2F780950823BC
:102A700088816C8136D285E090E014D1BA948FEFD2
:102A8000B81609F091CF81E06816710419F48B81B2
:102A900061E027D2802FDF91CF911F910F91FF909E
:102AA000EF90DF90CF90BF90AF909F908F907F90EE
:102AB0006F9008950F931F938C01FC0163838181B4
:102AC00060E05CD1F801808161E058D1F801828139
:102AD00061E054D1F801838161E050D1F801828135
:102AE00061E0FFD1F801838161E0FBD1F8018081D1
:102AF0006481F7D11F910F9108951F920F920FB625
:102B00000F9211242F933F938F939F93AF93BF9373
:102B10008091DD0D9091DE0DA091DF0DB091E00D63
:102B20003091E10D0196A11DB11D232F2D5F2D3791
:102B300020F02D570196A11DB11D2093E10D80932A
:102B4000DD0D9093DE0DA093DF0DB093E00D80912D
:102B5000D90D9091DA0DA091DB0DB091DC0D0196AD
:102B6000A11DB11D8093D90D9093DA0DA093DB0DBB
:102B7000B093DC0DBF91AF919F918F913F912F91B9
:102B80000F900FBE0F901F9018958FB7F89420915B
:102B9000DD0D3091DE0D4091DF0D5091E00D8FBFC6
:102BA000B901CA0108959FB7F8942091D90D3091C9
:102BB000DA0D4091DB0D5091DC0D86B5A89B06C067
:102BC0008F3F21F02F5F3F4F4F4F5F4F9FBF542FDD
:102BD000432F322F2227280F311D411D511D82E026
:102BE000220F331F441F551F8A95D1F7B901CA011F
:102BF00008959B01AC017FB7F8948091D90D909115
:102C0000DA0DA091DB0DB091DC0D66B5A89B05C077
:102C10006F3F19F00196A11DB11D7FBFBA2FA92FDB
:102C2000982F8827860F911DA11DB11D62E0880F86
:102C3000991FAA1FBB1F6A95D1F7BC012DC0FFB712
:102C4000F8948091D90D9091DA0DA091DB0DB0919F
:102C5000DC0DE6B5A89B05C0EF3F19F00196A11D5C
:102C6000B11DFFBFBA2FA92F982F88278E0F911D56
:102C7000A11DB11DE2E0880F991FAA1FBB1FEA9595
:102C8000D1F7861B970B885E9340C8F221503040E5
:102C90004040504068517C4F211531054105510598
:102CA00071F60895019739F0880F991F880F991FC1
:102CB00002970197F1F70895789484B5826084BDF6
:102CC00084B5816084BD85B5826085BD85B5816030
:102CD00085BDEEE6F0E0808181608083E1E8F0E090
:102CE0001082808182608083808181608083E0E8BF
:102CF000F0E0808181608083E1EBF0E0808184609E
:102D00008083E0EBF0E0808181608083E1E9F0E0A6
:102D1000808182608083808181608083E0E9F0E04F
:102D2000808181608083E1EAF0E08081826080833D
:102D3000808181608083E0EAF0E08081816080832F
:102D4000E1E2F1E080818260808380818160808324
:102D5000E0E2F1E0808181608083EAE7F0E0808159
:102D600084608083808182608083808181608083B1
:102D70008081806880831092C1000895CF93DF9393
:102D8000482F50E0CA0188589E4FFC0134914E5C98
:102D90005E4FFA018491882369F190E0880F991FB2
:102DA000FC01EC51FF4FA591B491FC01E250FF4FA3
:102DB000C591D491662351F42FB7F8948C91932F39
:102DC000909589238C93888189230BC0623061F4AC
:102DD0002FB7F8948C91932F909589238C938881A9
:102DE000832B88832FBF06C09FB7F8948C91832BC9
:102DF0008C939FBFDF91CF910895893009F449C02A
:102E00008A30A0F4843051F1853040F4823079F179
:102E1000833000F5813009F063C026C0873079F136
:102E2000883098F5863009F05BC025C08D3009F4F4
:102E300042C08E3028F48B30B1F18C30C0F52DC0FB
:102E4000803109F442C0813109F445C08F3009F066
:102E500047C037C0809180008F7703C08091800089
:102E60008F7D80938000089584B58F7702C084B5EC
:102E70008F7D84BD08958091B0008F7703C08091CD
:102E8000B0008F7D8093B0000895809190008F777F
:102E900007C0809190008F7D03C080919000877F54
:102EA0008093900008958091A0008F7707C0809153
:102EB000A0008F7D03C08091A000877F8093A00039
:102EC0000895809120018F7703C0809120018F7D2C
:102ED00080932001089580912001877F80932001B5
:102EE0000895FF920F931F93F62E482F50E0CA01CA
:102EF00082549E4FFC012491CA0188589E4FFC01C8
:102F000014914E5C5E4FFA0104910023C1F022231C
:102F100011F0822F72DFE02FF0E0EE0FFF1FE25082
:102F2000FF4FA591B4919FB7F894FF2021F48C91A5
:102F30001095812302C08C91812B8C939FBF1F9190
:102F40000F91FF9008950F931F93482F50E0CA01EF
:102F500082549E4FFC012491CA0188589E4FFC0167
:102F600004914E5C5E4FFA011491112319F420E094
:102F700030E014C0222311F0822F3FDF812F90E038
:102F8000880F991F885E9E4FFC01A591B4918C918A
:102F900020E030E0802311F021E030E0C9011F91F2
:102FA0000F910895BF92CF92DF92EF92FF920F930D
:102FB0001F93CF93DF93E82EF62EB42EC7E0D0E018
:102FC000022F10E087E0C82ED12CBB2059F4B601A7
:102FD0006C1B7D0BC80102C0959587956A95E2F739
:102FE000BC0107C0B8010C2E02C0759567950A9404
:102FF000E2F761708E2D75DF8F2D61E072DF8F2D0E
:1030000060E06FDF21979FEFCF3FD907F1F6DF91A7
:10301000CF911F910F91FF90EF90DF90CF90BF90D5
:103020000895CF92DF92EF92FF920F931F93CF9369
:10303000DF93F82E062FE42E10E0C7E0D0E097E0F3
:10304000C92ED12C802F61E04CDFEE2059F48F2D5A
:103050007ADF96012C1B3D0B02C0880F991F2A9521
:10306000E2F708C08F2D6FDF0C2E02C0880F991F6A
:103070000A94E2F7182B802F60E033DF21978FEF5F
:10308000CF3FD807F9F6812FDF91CF911F910F9194
:10309000FF90EF90DF90CF90089508951F920F92C8
:1030A0000FB60F920BB60F9211242F933F934F93AD
:1030B0008F939F93EF93FF938091C00082FD1DC07B
:1030C0004091C6002091220E3091230E2F5F3F4F7A
:1030D0002F7330708091240E9091250E2817390798
:1030E00071F0E091220EF091230EEE51F24F4083E9
:1030F0003093230E2093220E02C08091C600FF91D0
:10310000EF919F918F914F913F912F910F900BBE17
:103110000F900FBE0F901F90189508951F920F9259
:103120000FB60F920BB60F9211242F933F934F932C
:103130008F939F93EF93FF938091C80082FD1DC0F2
:103140004091CE002091AA0E3091AB0E2F5F3F4FE1
:103150002F7330708091AC0E9091AD0E2817390707
:1031600071F0E091AA0EF091AB0EE659F14F408359
:103170003093AB0E2093AA0E02C08091CE00FF9137
:10318000EF919F918F914F913F912F910F900BBE97
:103190000F900FBE0F901F90189508951F920F92D9
:1031A0000FB60F920BB60F9211242F933F934F93AC
:1031B0008F939F93EF93FF938091D00082FD1DC06A
:1031C0004091D6002091320F3091330F2F5F3F4F47
:1031D0002F7330708091340F9091350F2817390775
:1031E00071F0E091320FF091330FEE50F14F4083C8
:1031F0003093330F2093320F02C08091D600FF919D
:10320000EF919F918F914F913F912F910F900BBE16
:103210000F900FBE0F901F90189508951F920F9258
:103220000FB60F920BB60F9211242F933F934F932B
:103230008F939F93EF93FF938091300182FD1DC088
:10324000409136012091BA0F3091BB0F2F5F3F4F55
:103250002F7330708091BC0F9091BD0F28173907E4
:1032600071F0E091BA0FF091BB0FE658F04F408338
:103270003093BB0F2093BA0F02C080913601FF91AB
:10328000EF919F918F914F913F912F910F900BBE96
:103290000F900FBE0F901F901895E0910E10F091B7
:1032A0000F10E05CFF4F8191919120813181821B51
:1032B000930B8F739070892B09F0EFDEE091301043
:1032C000F0913110E05CFF4F81919191208131812B
:1032D000821B930B8F739070892B09F01EDFE09196
:1032E0005210F0915310E05CFF4F81919191208139
:1032F0003181821B930B8F739070892B09F04DDF06
:10330000E0917410F0917510E05CFF4F8191919104
:1033100020813181821B930B8F739070892B09F070
:103320007CCF08951F920F920FB60F920BB60F929B
:1033300011242F933F938F939F93EF93FF932091AB
:10334000660E3091670E8091680E9091690E281775
:10335000390731F48091C1008F7D8093C10014C082
:10336000E091680EF091690EEA5DF14F2081809145
:10337000680E9091690E01968F7390709093690E0C
:103380008093680E2093C600FF91EF919F918F91DB
:103390003F912F910F900BBE0F900FBE0F901F907B
:1033A00018951F920F920FB60F920BB60F92112421
:1033B0002F933F938F939F93EF93FF932091EE0E64
:1033C0003091EF0E8091F00E9091F10E2817390791
:1033D00031F48091C9008F7D8093C90014C0E091C1
:1033E000F00EF091F10EE255F14F20818091F00E38
:1033F0009091F10E01968F7390709093F10E8093DF
:10340000F00E2093CE00FF91EF919F918F913F910D
:103410002F910F900BBE0F900FBE0F901F9018951D
:103420001F920F920FB60F920BB60F9211242F938B
:103430003F938F939F93EF93FF932091760F30915B
:10344000770F8091780F9091790F2817390731F411
:103450008091D1008F7D8093D10014C0E091780FCE
:10346000F091790FEA5CF04F20818091780F909174
:10347000790F01968F7390709093790F8093780FE6
:103480002093D600FF91EF919F918F913F912F91C3
:103490000F900BBE0F900FBE0F901F9018951F92AC
:1034A0000F920FB60F920BB60F9211242F933F93EA
:1034B0008F939F93EF93FF932091FE0F3091FF0F17
:1034C00080910010909101102817390731F48091F4
:1034D00031018F7D8093310114C0E0910010F09193
:1034E0000110E254F04F2081809100109091011062
:1034F00001968F7390709093011080930010209329
:103500003601FF91EF919F918F913F912F910F90F5
:103510000BBE0F900FBE0F901F9018958F929F9229
:10352000AF92BF92CF92DF92EF92FF920F931F93D1
:10353000DF93CF93CDB7DEB7FC011382128288EE02
:1035400093E0A0E0B0E084839583A683B78380E90D
:103550009DE0918380837587648757874687318B89
:10356000208B138B028BF58AE48AD78AC68AB18EA8
:10357000A08E938E828E8889848F8989858F8A898F
:10358000868F8B89878F8C8980A3CF91DF911F9144
:103590000F91FF90EF90DF90CF90BF90AF909F90F2
:1035A0008F9008958F929F92AF92BF92CF92DF92A9
:1035B000EF92FF920F931F93DF93CF93CDB7DEB7B8
:1035C000FC011382128288EE93E0A0E0B0E08483D5
:1035D0009583A683B78380E99DE091838083758777
:1035E000648757874687318B208B138B028BF58A34
:1035F000E48AD78AC68AB18EA08E938E828E8889FD
:10360000848F8989858F8A89868F8B89878F8C891A
:1036100080A3CF91DF911F910F91FF90EF90DF90EA
:10362000CF90BF90AF909F908F900895AF92BF9230
:10363000DF92EF92FF920F931F93CF93DF93EC01F2
:103640007A018B01DD24403081EE580780E0680765
:1036500080E0780711F0DD24D39491E0A92EB12CFD
:10366000EC89FD89DD2069F0C50108A002C0880F42
:10367000991F0A94E2F7808360E079E08DE390E09F
:1036800005C0108260E874E88EE190E0A80197011F
:103690000E94FC352150304040405040569547959F
:1036A0003795279580E12030380720F0DD2011F094
:1036B000DD24D6CFE889F9893083EA89FB89208324
:1036C00019A2EE89FF89408121E030E0C9010C8C0C
:1036D00002C0880F991F0A94E2F7482B4083EE89B5
:1036E000FF894081C9010D8C02C0880F991F0A947F
:1036F000E2F7482B4083EE89FF894081C9010E8C97
:1037000002C0880F991F0A94E2F7482B4083EE8984
:10371000FF8980810F8C02C0220F331F0A94E2F7C9
:10372000209528232083DF91CF911F910F91FF9047
:10373000EF90DF90BF90AF900895AF92BF92CF927D
:10374000DF92EF92FF920F931F93CF93DF93EC01E1
:103750007A018B01C22EDD24403081EE580780E0D3
:10376000680780E0780711F0DD24D39471E0A72E7C
:10377000B12CEC89FD89DD2069F0C50108A002C0EB
:10378000880F991F0A94E2F7808360E079E08DE367
:1037900090E005C0108260E874E88EE190E0A80136
:1037A00097010E94FC3521503040404050405695D2
:1037B00047953795279580E12030380720F0DD20A8
:1037C00011F0DD24D6CFE889F9893083EA89FB89B5
:1037D0002083E88DF98DC082EE89FF89408121E048
:1037E00030E0C9010C8C02C0880F991F0A94E2F7DF
:1037F000482B4083EE89FF894081C9010D8C02C0AE
:10380000880F991F0A94E2F7482B4083EE89FF89BD
:103810004081C9010E8C02C0880F991F0A94E2F7FB
:10382000482B4083EE89FF8980810F8C02C0220FD4
:10383000331F0A94E2F7209528232083DF91CF914C
:103840001F910F91FF90EF90DF90CF90BF90AF90BE
:103850000895CF93DF93DC011E968D919C911F9765
:10386000EC01C05CDF4FFC01EE5BFF4F288139812A
:103870008081918128173907C9F75696ED91FC91FF
:103880005797408121E030E0C9015C960C905C972D
:1038900002C0880F991F0A94E2F7809584238083E1
:1038A0005696ED91FC9157974081C9015D960C9019
:1038B0005D9702C0880F991F0A94E2F780958423D0
:1038C00080835696ED91FC9157974081C9015E9691
:1038D0000C905E9702C0880F991F0A94E2F78095BA
:1038E000842380835696ED91FC91579780815F9653
:1038F0000C905F9702C0220F331F0A94E2F72095C5
:10390000282320831C96ED91FC911D97EE5BFF4FC1
:103910008081918192938293DF91CF910895DC0110
:103920001C96ED91FC911D97E05CFF4F2191319128
:1039300080819181281B390B2F733070C901089544
:10394000DC011C96ED91FC911D97E05CFF4F2081FE
:103950003181E054F040DF01AE5BBF4F8D919C910F
:1039600011972817390719F42FEF3FEF07C08D91F2
:103970009C91E80FF91F8081282F30E0C90108953C
:10398000DC011C96ED91FC911D97E05CFF4F2081BE
:103990003181E054F040DF01AE5BBF4F8D919C91CF
:1039A00011972817390719F42FEF3FEF10C08D91A9
:1039B0009C911197E80FF91F20818D919C9111978F
:1039C00001968F73907011969C938E9330E0C9018D
:1039D0000895DC0191968C919197882339F0549643
:1039E000ED91FC915597808186FFF9CF91961C92BD
:1039F0000895CF93DF93EC01EE85FF85E05CFF4FE8
:103A000020813181E054F0402F5F3F4F2F733070A1
:103A1000DF01AE5BBF4F8D919C911197281739073D
:103A2000D1F3E05CFF4F80819181E054F040E80FDA
:103A3000F91F6083EE85FF85E05CFF4F31832083B3
:103A4000EE89FF89208181E090E00F8C02C0880F11
:103A5000991F0A94E2F7282B208381E089A3EC893F
:103A6000FD8980818064808381E090E0DF91CF9147
:103A7000089581E008951F9310920510109204108C
:103A800028EE33E040E050E020930610309307101A
:103A9000409308105093091060E97DE07093031083
:103AA0006093021082EE9DE090930F1080930E10B1
:103AB00086E29EE0909311108093101085EC90E0C8
:103AC000909313108093121084EC90E09093151053
:103AD0008093141080EC90E0909317108093161050
:103AE00081EC90E0909319108093181082EC90E094
:103AF00090931B1080931A1086EC90E090931D1009
:103B000080931C1014E010931E10B3E0B0931F10AC
:103B1000A7E0A0932010F5E0F0932110E1E0E093FE
:103B20002210109227101092261020932810309304
:103B3000291040932A1050932B10709325106093F6
:103B400024108AE69EE090933110809330108EEA24
:103B50009EE090933310809332108DEC90E0909320
:103B60003510809334108CEC90E090933710809354
:103B7000361088EC90E0909339108093381089ECDF
:103B800090E090933B1080933A108AEC90E09093F1
:103B90003D1080933C108EEC90E090933F1080930A
:103BA0003E1010934010B0934110A0934210F09338
:103BB0004310E09344101092491010924810209343
:103BC0004A1030934B1040934C1050934D1070930B
:103BD00047106093461082EF9EE0909353108093BD
:103BE000521086E39FE0909355108093541085ED1A
:103BF00090E0909357108093561084ED90E090934E
:103C000059108093581080ED90E090935B10809352
:103C10005A1081ED90E090935D1080935C1082EDDE
:103C200090E090935F1080935E1086ED90E090930B
:103C300061108093601010936210B0936310A09392
:103C40006410F0936510E093661010926B10109260
:103C50006A1020936C1030936D1040936E10509347
:103C60006F1070936910609368108AE79FE09093DB
:103C70007510809374108EEB9FE090937710809373
:103C8000761085E391E0909379108093781084E327
:103C900091E090937B1080937A1080E391E0909371
:103CA0007D1080937C1081E391E090937F1080934E
:103CB0007E1082E391E0909381108093801086E3E0
:103CC00091E0909383108093821010938410B093AE
:103CD0008510A0938610F0938710E09388101F91B1
:103CE0000895CF93DF930E945C160E94880ACDE46A
:103CF000D9E10E94870A2097E1F3CFDAFACFFC01DD
:103D000020E030E08081882311F421E030E0C90117
:103D10000895FC0181E080830895089508950C942E
:103D2000BD2B0C94BD2B0C94132B0C94132BCF9206
:103D3000DF92EF92FF920F931F93CF93DF937C015B
:103D40006B018A01C0E0D0E00FC0D6016D916D011A
:103D5000D701ED91FC910190F081E02DC7011995FB
:103D6000C80FD91F015010400115110571F7CE0180
:103D7000DF91CF911F910F91FF90EF90DF90CF9047
:103D80000895EF92FF920F931F93CF93DF937C01DF
:103D90008B01C0E0D0E0F8010F5F1F4F64916623F4
:103DA00059F0D701ED91FC910190F081E02DC70110
:103DB0001995C80FD91FEFCFCE01DF91CF911F9179
:103DC0000F91FF90EF900895DC01ED91FC9101902F
:103DD000F081E02D199508959C01DB01ED91FC9196
:103DE0000190F081E02DCB01B90119950895EF9272
:103DF000FF920F931F938C01DC01ED91FC910190D8
:103E0000F081E02D6DE019957C01D801ED91FC91D8
:103E10000190F081E02DC8016AE019959C012E0DFA
:103E20003F1DC9011F910F91FF90EF900895EF92F0
:103E3000FF920F931F937C01A4DF8C01C701D7DF92
:103E40009C01200F311FC9011F910F91FF90EF902E
:103E50000895EF92FF920F931F937C01DC01ED9187
:103E6000FC910190F081E02D19958C01C701BFDF15
:103E7000080F191FC8011F910F91FF90EF9008952F
:103E8000EF92FF920F931F937C01DB01ED91FC9168
:103E90000190F081E02DCB01B70119958C01C7018C
:103EA000A6DF080F191FC8011F910F91FF90EF9017
:103EB0000895CF93DF93EC016115710519F420E0AB
:103EC00030E00FC0DB010D900020E9F71197A61B31
:103ED000B70BE881F9810280F381E02DAD011995DE
:103EE0009C01C901DF91CF9108954F925F927F921B
:103EF0008F929F92AF92BF92CF92DF92EF92FF92FA
:103F00000F931F93DF93CF93CDB7DEB7A1970FB673
:103F1000F894DEBF0FBECDBF2C01742ECB01223032
:103F200008F42AE019A231E2C32ED12CCC0EDD1EFA
:103F3000822E9924AA24BB24672D752FA5019401F4
:103F40000E94FC3579018A01C801B701A5019401DD
:103F50000E94DD35472D461B0894C108D1084A3020
:103F600014F4405D01C0495CF6014083E114F104A2
:103F70000105110521F07E2C5F2DC801DDCFC201A6
:103F8000B6010E949401A1960FB6F894DEBF0FBE51
:103F9000CDBFCF91DF911F910F91FF90EF90DF90F8
:103FA000CF90BF90AF909F908F907F905F904F90F9
:103FB0000895DC012115310541F4ED91FC9101904A
:103FC000F081E02D642F199508958FCFEF92FF9225
:103FD0000F931F937C01EDDF8C01C70108DF9C016B
:103FE000200F311FC9011F910F91FF90EF9008958D
:103FF000EF92FF920F931F939A017B0100E010E074
:10400000B801A701D6DF1F910F91FF90EF9008959F
:10401000CF92DF92EF92FF920F931F936C017B017F
:104020009A0100E010E0B801A701C3DF8C01C601CE
:10403000DEDE080F191FC8011F910F91FF90EF904E
:10404000DF90CF900895EF92FF920F931F939A0104
:10405000E62EFF2400E010E0B801A701AADF1F91BF
:104060000F91FF90EF900895CF92DF92EF92FF9221
:104070000F931F936C01E62E9A01FF2400E010E0DD
:10408000B801A70196DF8C01C601B1DE080F191F28
:10409000C8011F910F91FF90EF90DF90CF9008958E
:1040A000CF92DF92EF92FF920F931F93CF93DF9304
:1040B000EC016A017B012115310541F4E881F981A8
:1040C0000190F081E02D642F19951DC02A30310533
:1040D000C9F477FF16C0E881F9810190F081E02DE5
:1040E0006DE219958C0144275527BA014C195D09D9
:1040F0006E097F09CE012AE0F8DE9801280F391FEA
:1041000003C02AE0F2DE9C01C901DF91CF911F912B
:104110000F91FF90EF90DF90CF900895EF92FF9274
:104120000F931F937C01BCDF8C01C70160DE9C01F3
:10413000200F311FC9011F910F91FF90EF9008953B
:10414000EF92FF920F931F937B019A010027F7FCD8
:104150000095102FB801A701A3DF1F910F91FF90C9
:10416000EF900895CF92DF92EF92FF920F931F93FB
:104170006C017B019A010027F7FC0095102FB80114
:10418000A7018EDF8C01C60132DE080F191FC8019E
:104190001F910F91FF90EF90DF90CF9008950C94B6
:1041A00094017F928F929F92AF92BF92CF92DF92B3
:1041B000EF92FF920F931F93CF93DF934C017A01FD
:1041C0008B01722ECB01BA01A80197010E94D9354B
:1041D000882321F0C4016CEA7DE021C0C0E0D0E07A
:1041E00057016801E894D7F8C601B5012FEF3FEFFA
:1041F0004FE75FE70E94D935882351F4C601B50126
:104200002FEF3FEF4FE75FE70E942334181614F0BB
:10421000C1E0D0E0219739F0C40160EB7DE00E945D
:104220009401EC0191C0C801B7012FEF3FEF4FE7B8
:104230005FE40E947235181654F0C801B7012FEFE1
:104240003FEF4FE75FEC0E942334882324F4C4013E
:1042500064EB7DE0E4CFC801B70120E030E040E04E
:1042600050E00E94233487FD03C0C0E0D0E00EC0C0
:10427000D401ED91FC910190F081E02DC4016DE23B
:104280001995EC0117FB109517F9109520E030E017
:1042900040E05FE3DD240BC0CA01B90120E030E05B
:1042A00040E251E40E9427349B01AC01D394D7141F
:1042B00098F3C801B7010E94BF335B016C010E94F3
:1042C00094347B018C01C401B801A7012AE030E0DD
:1042D00070DEC80FD91F772039F0C40168EB7DE08C
:1042E0000E949401C80FD91FC801B7010E94C034B1
:1042F0009B01AC01C601B5010E94BE3323C020E082
:1043000030E040E251E40E9476357B018C010E944E
:104310008F345B016C01CC24B7FCC094DC2CC4014D
:10432000B601A5012AE030E0BBDEC80FD91FC601E7
:10433000B5010E94C2349B01AC01C801B7010E94C3
:10434000BE337A947720D9F6CE01DF91CF911F91B9
:104350000F91FF90EF90DF90CF90BF90AF909F9024
:104360008F907F9008951DCFEF92FF920F931F9330
:104370007C0117DF8C01C7013ADD080F191FC80146
:104380001F910F91FF90EF900895EF92FF920F937E
:104390001F937C010E9494018C01C70128DD080F46
:1043A000191FC8011F910F91FF90EF900895AF92D0
:1043B000BF92CF92DF92EF92FF920F931F93CF9312
:1043C000DF935C016B01EE24FF24C0E0D0E00FC05E
:1043D000D501ED91FC9100811181C601BE015ED035
:1043E000682FC501F8011995E80EF91E2196F6010E
:1043F00084819581C817D90758F3C701DF91CF9100
:104400001F910F91FF90EF90DF90CF90BF90AF90F2
:104410000895EF92FF920F931F937C01C8DF8C01E8
:10442000C701E5DC9C01200F311FC9011F910F91CD
:10443000FF90EF900895FC018481958168177907BA
:1044400048F40190F081E02D309721F0E60FF71F3E
:104450008081089580E00895FC018481958168172A
:10446000790730F40190F081E02DE60FF71F4083CB
:104470000895FC019B01848195816817790728F4D0
:10448000608171816115710529F410928A106AE8C2
:1044900070E102C0620F731FCB010895FC0184819B
:1044A00095816817790748F40190F081E02D3097E5
:1044B00021F0E60FF71F8081089580E00895FC0148
:1044C0000190F081E02D309729F40895861709F4C2
:1044D0004083319680818823C9F70895FC0180814B
:1044E0009181009729F420E030E040E050E004C0E2
:1044F0000E94E52C9B01AC01B901CA010895CF923D
:10450000DF92EF92FF920F931F93CF93DF936C0193
:10451000DC01ED90FC901197E114F10409F441C025
:104520001496CD91DC9115972097D9F1870102C09F
:104530000F5F1F4FF8018081992787FD90950E949A
:104540002436892BA9F72197CE0DDF1D01C02197B5
:104550008881992787FD90950E942436892B19F030
:10456000C017D107A0F7FE013196E01BF10BD60171
:104570001596FC93EE9314972D913C9120173107DB
:1045800028F4C901B801AF010E940B2DD601ED91AD
:10459000FC91119714968D919C911597E80FF91F36
:1045A0001082DF91CF911F910F91FF90EF90DF90DC
:1045B000CF900895CF93DF93FC01C081D1812097E4
:1045C00039F409C0992787FD90950E943436899364
:1045D00088818823B9F7DF91CF910895CF93DF9336
:1045E000FC01C081D181209739F409C0992787FD4A
:1045F00090950E942C36899388818823B9F7DF91A2
:10460000CF910895EF92FF920F931F93CF93DF9373
:10461000FC01DB018617970739F124813581149657
:104620008D919C9115972817390701F5232BE1F0FF
:10463000E080F180CD91DC9113C0992787FD9095A2
:104640000E942C368C018881992787FD90950E94C5
:104650002C360817190751F40894E11CF11C219617
:10466000F7018081882349F781E001C080E0DF9174
:10467000CF911F910F91FF90EF900895AF92BF924D
:10468000CF92DF92EF92FF920F931F93CF93DF931E
:10469000FC015B017A01DB0114962D913C91159789
:1046A0002115310559F184819581009739F18217DF
:1046B000930720F14817590720F07C010894E1087E
:1046C000F10800811181C801CFEFDFEF6801CE0C46
:1046D000DF1C10C0F501608171810E946F2D9C016B
:1046E000009771F0801B910BE816F90608F0EC01B9
:1046F000C9010196C816D90668F702C0CFEFDFEFEF
:10470000CE01DF91CF911F910F91FF90EF90DF903D
:10471000CF90BF90AF900895FC01DB01448155819B
:1047200014968D919C911597481B590BCF01A6CFDC
:10473000CF93DF93FC01DB018481958148175907F2
:1047400060F4C081D1816D917C91CE01840F951F61
:104750000E946F2D9C01009719F42FEF3FEF02C0CC
:104760002C1B3D0BC901DF91CF91089540E050E033
:10477000DFCFDF92EF92FF920F931F93CF93DF93E0
:10478000EC018C819D8148175907C8F47A0108947F
:10479000E11CF11CE881F981EE0DFF1DD080108233
:1047A00008811981772767FD7095C8010E94642DE3
:1047B0009C010E0D1F1DF801D082009719F4EFEF38
:1047C000FFEF05C088819981F901E81BF90BCF0142
:1047D000DF91CF911F910F91FF90EF90DF9008959F
:1047E000FC014481558141505040C3CFCF93DF93AA
:1047F000FC01848195814817590768F4C081D181F3
:10480000772767FD7095CE01840F951F0E942C2D90
:104810009C01009719F42FEF3FEF02C02C1B3D0BBA
:10482000C901DF91CF91089540E050E0DFCF0F93B1
:104830001F93CF93DF93FC018B0141155105F9F0D4
:1048400061157105E1F0848195812817390718F009
:10485000FB01108214C041505040EC01C21BD30B2D
:104860004C175D0708F4EA0160817181620F731FC4
:10487000C801AE010E94552DC00FD11F1882DF91D3
:10488000CF911F910F910895FC01DB0124813581A7
:1048900014964D915C91159724173507A8F08081E7
:1048A0009181009789F06D917C916115710561F09E
:1048B000241B350B820F931F0E94372D9C0180E033
:1048C000232B19F481E0089580E00895DC01FB01B9
:1048D00014968D919C911597892B31F46115710572
:1048E000A9F090E0808108C00D90BC91A02D6115C9
:1048F000710529F490E08C91882349F407C0CD011B
:104900000E94372D9C0190E0232B09F491E0892F20
:104910000895CF93DF939C01FB01EC01A881B9813D
:10492000109729F06081718161157105D1F4C08102
:10493000D181209759F084819581892B39F0888124
:1049400090E022273327281B390B12C0109771F0F3
:10495000F90184819581892B49F08C91282F30E0D1
:1049600007C0CD010E94372D9C0102C020E030E03D
:10497000C901DF91CF910895CCDF892F8095881FE1
:104980008827881F0895C5DF20E0181619060CF047
:1049900021E0822F0895BDDF20E0181619060CF4DF
:1049A00021E0822F0895B5DF892F881F8827881F6F
:1049B0000895FC01DB012481358114968D919C9131
:1049C00015972817390711F020E006C0CF01A1DFA5
:1049D00020E0892B09F421E0822F0895FC01DB01FE
:1049E00014962D913C91159784819581821B930B90
:1049F00084179507A0F080819181009781F06D91D7
:104A00007C916115710559F0840F951FA9010E94D1
:104A1000472D9C0180E0232B19F481E0089580E06C
:104A20000895FC01DB012481358114968D919C91C0
:104A300015972817390710F480E00895CF0140E05A
:104A400050E0CCCF0F931F93CF93DF93EC018B01FA
:104A50006F5F7F4F88819981E8D6009711F480E0DD
:104A600005C0998388831B830A8381E0DF91CF91FE
:104A70001F910F9108952F923F924F925F926F92E4
:104A80007F928F929F92AF92BF92CF92DF92EF92DE
:104A9000FF920F931F93CF93DF935C012B014A0189
:104AA000DC0114960D911C9115970115110509F45F
:104AB000C9C0FB01C480D580C114D10409F4C2C0AF
:104AC000DA0114966D907C9015976C187D08FC01A6
:104AD000E080F1806114710489F019C0D4016C91F7
:104AE00011967C91119714964D915C9115978C2F8E
:104AF00092D7F401E480F580EC0EFD1ED2016D9199
:104B00007C91C701ECD7EC01009741F79BC077FE81
:104B100002C067012CC0FB0120803180E80138C051
:104B20008E010E191F09C601B701A80174D70C0D1B
:104B30001D1DD4016C9111967C91119714964D9185
:104B40005C911597C80167D7F401C480D580C00E69
:104B5000D11ED2011496ED90FC901597EC0EFD1E1F
:104B6000F50184819581860D971D95838483D201FB
:104B70006D917C91C701B3D7EC01009789F6C6010E
:104B8000B7017ED75FC07B01EC0CFD1CC60DD71DA5
:104B9000C701B101A4D7BC010097A9F7C017D1077D
:104BA00009F450C0F501828193818C179D0708F0AC
:104BB00040C0C501BE0146DF8823D9F543C0C50109
:104BC000B201A9015BDDEC0197FD3CC0D5016D91FF
:104BD0007C911197F201848195818C0F9D1F680F44
:104BE000791F14964D915C911597481B590BCB0179
:104BF000860D971D19D7D50114968D919C91159707
:104C0000860D971D15969C938E931497ED91FC91AC
:104C10001197E80FF91F10822D913C912C0F3D1F29
:104C2000F4016081718144815581C901F4D69E01EE
:104C300005C0D50114962D913C9115972150304017
:104C400037FFBDCFDF91CF911F910F91FF90EF9074
:104C5000DF90CF90BF90AF909F908F907F906F909C
:104C60005F904F903F902F900895CF93DF93EC018A
:104C700088819981892B29F08A819B8186179707E2
:104C800058F4CE01DFDE882341F08C819D81892B91
:104C900019F4E881F981108281E0DF91CF910895C4
:104CA000EF92FF920F931F93CF93DF93EC017B0161
:104CB0006C817D81E114F104B1F04115510589F059
:104CC0008A01060F171FB801D0DF882361F08881A1
:104CD00099812C813D81820F931FB701D1D61D830D
:104CE0000C8381E001C080E0DF91CF911F910F9193
:104CF000FF90EF900895EF92FF920F931F93DF9331
:104D0000CF93CDB7DEB72B970FB6F894DEBF0FBEAB
:104D1000CDBF7C01CB01BA018E010F5F1F4FA801EF
:104D20002AE030E05ED7F80101900020E9F73197E2
:104D3000E01BF10BC701B801AF01B2DF2B960FB634
:104D4000F894DEBF0FBECDBFCF91DF911F910F91C1
:104D5000FF90EF900895EF92FF920F931F93DF93D0
:104D6000CF93CDB7DEB72C970FB6F894DEBF0FBE4A
:104D7000CDBF7C01CB01BA018E010F5F1F4FA8018F
:104D80002AE030E0E6D6F80101900020E9F73197FB
:104D9000E01BF10BC701B801AF0182DF2C960FB603
:104DA000F894DEBF0FBECDBFCF91DF911F910F9161
:104DB000FF90EF900895EF92FF920F931F93DF9370
:104DC000CF9300D000D0CDB7DEB77C01CB018E01F0
:104DD0000F5F1F4FB8014AE050E026D7F80101905D
:104DE0000020E9F73197E01BF10BC701B801AF01D3
:104DF00057DF26960FB6F894DEBF0FBECDBFCF911A
:104E0000DF911F910F91FF90EF900895EF92FF9225
:104E10000F931F93DF93CF93CDB7DEB727970FB6CE
:104E2000F894DEBF0FBECDBF7C01CB018E010F5FBA
:104E30001F4FB8014AE050E06CD6F8010190002005
:104E4000E9F73197E01BF10BC701B801AF0128DF8B
:104E500027960FB6F894DEBF0FBECDBFCF91DF917E
:104E60001F910F91FF90EF900895EF92FF920F9393
:104E70001F93DF93CF9300D00F92CDB7DEB77C01A5
:104E8000862F90E08E010F5F1F4FB8014AE050E07F
:104E900040D6F80101900020E9F73197E01BF10BB3
:104EA000C701B801AF01FCDE0F900F900F900F907B
:104EB000CF91DF911F910F91FF90EF900895DF93B5
:104EC000CF930F920F92CDB7DEB769831A82BE01DE
:104ED0006F5F7F4F41E050E0E3DE0F900F90CF9186
:104EE000DF9108956115710511F480E00895DB01EB
:104EF0000D900020E9F71197A61BB70BAD01D0CE9E
:104F0000FB016081718144815581CACECF93DF93CB
:104F1000EC0188819981009709F02FD419821882B9
:104F20001D821C821B821A82DF91CF9108950F93FC
:104F30001F93182F092FDFDE882319F4812F902F5C
:104F4000E5DF812F902F1F910F9108950F931F93ED
:104F5000182F092F00DF882319F4812F902FD6DF17
:104F6000812F902F1F910F9108950F931F93182F4A
:104F7000092F21DF882319F4812F902FC7DF812F7C
:104F8000902F1F910F9108950F931F93182F092FA2
:104F90003DDF882319F4812F902FB8DF812F902FC8
:104FA0001F910F9108950F931F93182F092F5DDF05
:104FB000882319F4812F902FA9DF812F902F1F9123
:104FC0000F9108950F931F93182F092F78DF8823CF
:104FD00019F4812F902F9ADF812F902F1F910F911D
:104FE00008950F931F93182F092F6115710559F01C
:104FF000DB010D900020E9F71197A61BB70BAD015F
:105000004FDE882319F4812F902F80DF812F902F7E
:105010001F910F9108950F931F93182F092FFB01D4
:1050200060817181448155813BDE882319F4812F91
:10503000902F6CDF812F902F1F910F910895EF9289
:10504000FF920F931F93CF93DF93EC017B018A01B3
:10505000BA010BDE882319F4CE0158DF06C01D8388
:105060000C8388819981B7010BD5CE01DF91CF9157
:105070001F910F91FF90EF900895CF93DF93EC0174
:10508000198218821B821A821D821C821E8261155F
:10509000710549F0DB010D900020E9F71197A61B7F
:1050A000B70BAD01CCDFDF91CF910895CF93DF93A4
:1050B000EC01198218821B821A821D821C821E82B8
:1050C0006115710549F0DB010D900020E9F711979A
:1050D000A61BB70BAD01B3DFDF91CF9108950F93FE
:1050E0001F93182F092F6115710551F0DB010D90E9
:1050F0000020E9F71197A61BB70BAD01A0DF01C097
:1051000005DF812F902F1F910F910895EF92FF924D
:105110000F931F93DF93CF93CDB7DEB7A1970FB651
:10512000F894DEBF0FBECDBF8C01FC01118210824E
:1051300013821282158214821682CB01BA017E017B
:105140000894E11CF11CA70130E04BD5C801B70160
:10515000C6DFA1960FB6F894DEBF0FBECDBFCF91CC
:10516000DF911F910F91FF90EF900895EF92FF92C2
:105170000F931F93DF93CF93CDB7DEB7A1970FB6F1
:10518000F894DEBF0FBECDBF8C01FC0111821082EE
:1051900013821282158214821682CB01BA017E011B
:1051A0000894E11CF11CA70130E01BD5C801B70130
:1051B00096DFA1960FB6F894DEBF0FBECDBFCF919C
:1051C000DF911F910F91FF90EF900895EF92FF9262
:1051D0000F931F93DF93CF93CDB7DEB7A2970FB690
:1051E000F894DEBF0FBECDBF8C01FC01118210828E
:1051F00013821282158214821682CB01BA017E01BB
:105200000894E11CF11CA70130E0A3D4C801B70148
:1052100066DFA2960FB6F894DEBF0FBECDBFCF916A
:10522000DF911F910F91FF90EF900895EF92FF9201
:105230000F931F93DF93CF93CDB7DEB7A2970FB62F
:10524000F894DEBF0FBECDBF8C01FC01118210822D
:1052500013821282158214821682CB01BA017E015A
:105260000894E11CF11CA70130E073D4C801B70118
:1052700036DFA2960FB6F894DEBF0FBECDBFCF913A
:10528000DF911F910F91FF90EF900895EF92FF92A1
:105290000F931F93DF93CF93CDB7DEB761970FB610
:1052A000F894DEBF0FBECDBF8C01CB01F801118297
:1052B0001082138212821582148216827E01089453
:1052C000E11CF11CB70150E0AFD4C801B70107DF02
:1052D00061960FB6F894DEBF0FBECDBFCF91DF91C0
:1052E0001F910F91FF90EF900895EF92FF920F930F
:1052F0001F93DF93CF93CDB7DEB761970FB6F894C6
:10530000DEBF0FBECDBF8C01CB01F8011182108230
:10531000138212821582148216827E010894E11C87
:10532000F11CB70150E080D4C801B701D8DE619606
:105330000FB6F894DEBF0FBECDBFCF91DF911F91A6
:105340000F91FF90EF900895EF92FF920F931F93AC
:10535000DF93CF93CDB7DEB762970FB6F894DEBF79
:105360000FBECDBF8C01CB01F801118210821382D8
:1053700012821582148216827E010894E11CF11CAF
:10538000B70150E0C6D3C801B701A9DE62960FB6D7
:10539000F894DEBF0FBECDBFCF91DF911F910F916B
:1053A000FF90EF900895EF92FF920F931F93DF937A
:1053B000CF93CDB7DEB762970FB6F894DEBF0FBEBE
:1053C000CDBF8C01CB01F8011182108213821282B1
:1053D0001582148216827E010894E11CF11CB7012B
:1053E00050E097D3C801B7017ADE62960FB6F89401
:1053F000DEBF0FBECDBFCF91DF911F910F91FF9008
:10540000EF900895EF92FF920F931F93DF93CF9346
:10541000CDB7DEB729970FB6F894DEBF0FBECDBF6C
:105420008C01862FF801118210821382128215825C
:105430001482168290E07E010894E11CF11CB701F1
:1054400050E0F2D3C801B7014ADE29960FB6F894AE
:10545000DEBF0FBECDBFCF91DF911F910F91FF90A7
:10546000EF900895EF92FF920F931F93DF93CF93E6
:10547000CDB7DEB729970FB6F894DEBF0FBECDBF0C
:105480008C01862FF80111821082138212821582FC
:105490001482168290E07E010894E11CF11CB70191
:1054A00050E0C2D3C801B7011ADE29960FB6F894AE
:1054B000DEBF0FBECDBFCF91DF911F910F91FF9047
:1054C000EF900895DF93CF930F920F92CDB7DEB791
:1054D000FC011182108213821282158214821682BC
:1054E00069831A82BE016F5F7F4FF9DD0F900F90C5
:1054F000CF91DF910895DF93CF930F920F92CDB7A5
:10550000DEB7FC011182108213821282158214828E
:10551000168269831A82BE016F5F7F4FE0DD0F90B4
:105520000F90CF91DF910895BF92CF92DF92EF92CB
:10553000FF920F931F93CF93DF93082FB92E6B0128
:105540007A01E9012417350710F4EA017901802F67
:105550009B2D62EC7DE091DDD60114968D919C919E
:1055600015978E159F05C8F08C179D0708F4EC0160
:10557000D601ED91FC911197EC0FFD1F1081108267
:105580006D917C916E0D7F1D802F9B2DA8DDD60126
:10559000ED91FC91EC0FFD1F1083802F9B2DDF916F
:1055A000CF911F910F91FF90EF90DF90CF90BF9020
:1055B00008950F931F938C01FB0124813581B4DF83
:1055C000C8011F910F910895CF93DF93EC01FB0168
:1055D0008617970751F0608171816115710521F07F
:1055E000448155812CDD01C091DCCE01DF91CF914A
:1055F0000895FC0111821082138212821582148296
:105600001682E2CFFC01118210821382128215826F
:1056100014821682D9CFFC0180819181AEC0FC0139
:1056200080819181AAC0CF93DF93BC018230910524
:1056300010F462E070E0A0918D10B0918E10ED0139
:10564000E0E0F0E040E050E021C0888199818617D9
:10565000970769F48A819B81309719F0938382833D
:1056600004C090938E1080938D10FE0134C0681793
:10567000790738F44115510519F08417950708F496
:10568000AC01FE018A819B819C01E9012097E9F62A
:1056900041155105A9F1CA01861B970B049708F41F
:1056A000BA01E0E0F0E02AC08D919C911197841737
:1056B0009507F9F46417750781F412968D919C9102
:1056C0001397309719F09383828304C090938E10C0
:1056D00080938D10FD0132964CC0CA01861B970B3A
:1056E000FD01E80FF91F6193719302978D939C93CD
:1056F00040C0FD01828193819C01D9011097A1F6E0
:1057000080918B1090918C10892B41F48091C50D64
:105710009091C60D90938C1080938B104091C70D83
:105720005091C80D4115510541F44DB75EB78091B8
:10573000C30D9091C40D481B590B20918B103091D3
:105740008C10CA01821B930B8617970780F0AB0160
:105750004E5F5F4F8417950750F0420F531F5093D1
:105760008C1040938B10F9016193719302C0E0E0BB
:10577000F0E0CF01DF91CF910895CF93DF930097B1
:1057800009F450C0EC0122971B821A82A0918D105F
:10579000B0918E10109709F140E050E0AC17BD07B2
:1057A00008F1BB83AA83FE0121913191E20FF31F1F
:1057B000AE17BF0779F48D919C911197280F391F6F
:1057C0002E5F3F4F3983288312968D919C911397BA
:1057D0009B838A834115510571F4D0938E10C09339
:1057E0008D1020C012968D919C911397AD0100975A
:1057F00011F0DC01D3CFFA01D383C283219131911F
:10580000E20FF31FCE17DF0769F488819981280F13
:10581000391F2E5F3F4FFA01318320838A819B819C
:1058200093838283DF91CF910895A0E0B0E0EBE114
:10583000FCE20C9455366C01009721F4CB01F3DEA9
:105840006C01BDC08EEF882E8FEF982E8C0C9D1CA6
:105850008601060F171F0815190508F4AEC0F401DC
:10586000A081B181A617B707B0F0A530B10508F443
:10587000A6C0CD0104978617970708F4A0C0129719
:10588000A61BB70BF801A193B193D4016D937C9340
:10589000CF0173DF94C07B01EA1AFB0AEEEFFFEF42
:1058A000EE0EFF1E36016A0E7B1EC0918D10D09148
:1058B0008E1044245524AA24BB244AC0C615D705FB
:1058C000E1F5488159814E155F05B8F1CA01049789
:1058D0008E159F05B0F41296A40FB51FF401B18385
:1058E000A0832A813B814114510431F0D2011396E7
:1058F0003C932E93129763C030938E1020938D109B
:105900005EC08A819B81F80193838283425050401C
:105910004E195F09518340834114510431F0D20183
:1059200013961C930E93129704C010938E1000933D
:105930008D10F4017183608342C088819981A8161B
:10594000B90608F45C012E018A819B819C01E90162
:10595000209709F0B3CF80918B1090918C10861511
:105960009705E9F4A616B706D0F42091C70D30913B
:10597000C80D2115310541F42DB73EB78091C30DF7
:105980009091C40D281B390B02171307B0F4109324
:105990008C1000938B10D4016D937C9310C0CB01BD
:1059A00042DEEC01009749F0F40140815181B601DB
:1059B00032D0C601E2DE6E0102C0CC24DD24C60175
:1059C000CDB7DEB7E0E10C9471361F93FC01992747
:1059D0008827BC01E89411911032E9F3193010F0D6
:1059E0001E30C8F31B3249F01D3241F4689405C0E3
:1059F000E3D0610F711D811D911D119110531A305B
:105A0000B8F33EF490958095709561957F4F8F4FD8
:105A10009F4F1F910895FB01DC0102C001900D9280
:105A200041505040D8F708956817790768F4FB0192
:105A3000DC01E40FF51FA40FB51F02C002900E9207
:105A400041505040D8F70895E6CFDC0101C06D9376
:105A500041505040E0F70895FC018191861721F0F4
:105A60008823D9F7992708953197CF010895FB012D
:105A7000DC018D91019080190110D9F3990B0895E3
:105A8000FB01DC0101900D920020E1F70895FB017C
:105A9000DC014150504030F08D910190801919F493
:105AA0000020B9F7881B990B0895FB01DC014150D8
:105AB000504048F001900D920020C9F701C01D929E
:105AC00041505040E0F70895FC0181E090E00190E2
:105AD000061609F4CF010020D1F701970895FB01C4
